:020000040800F2
:10000000484B002015280008E50B0008E70B000806
:100010000F0C0008130C0008170C0008000000006B
:100020000000000000000000000000001B0C0008A1
:100030001D0C0008000000001F0C0008210C000827
:100040002F2800082F2800082F2800082F28000834
:100050002F2800082F280008EB0B0008ED0B0008E4
:10006000EF0B0008F10B0008F30B00082F28000825
:100070002F2800082F2800082F2800082F28000804
:100080002F2800082F2800082F2800082F280008F4
:100090002F2800082F2800082F280008F50B00083B
:1000A0002F2800082F2800082F2800082F280008D4
:1000B0002F280008F90B00082F2800082F28000817
:1000C0002F2800082F2800082F2800082F280008B4
:1000D0002F280008C10C00082F2800082F2800082E
:1000E000F70B00082F2800082F28000800F002F85E
:1000F00000F05EF80AA090E8000C82448344AAF164
:100100000107DA4501D100F053F8AFF2090EBAE861
:100110000F0013F0010F18BFFB1A43F0010318473B
:10012000A02F0000C02F000010F8013B0A4413F07C
:10013000030408BF10F8014B1D1108BF10F8015B44
:10014000641E05D010F8016B641E01F8016BF9D133
:10015000002D15D010F8014B03F00C030C2BA1EB74
:1001600004040ABF10F8013BA4EB8314A4EB03249E
:1001700005F1010314F8016B5B1E01F8016BF9D561
:10018000914238BF10F8013BD1D3704700230024BF
:1001900000250026103A28BF78C1FBD8520728BF97
:1001A00030C148BF0B6070471FB51FBD10B510BDF3
:1001B00002F045FC1146FFF7F7FF00F009F802F0E6
:1001C00063FC03B4FFF7F2FF03BC00F021FC000066
:1001D00000F0C6FC00F06BF8F0224FF4A071002094
:1001E00000F052F92021104800F029FF00200F49AB
:1001F00008804FF478400E4908804FF4165000F004
:1002000013FD642000F02EFC0CE00A48008800F486
:10021000004038B10748047800200649088020468D
:1002200000F0C3FBF1E70000000C014000000020DB
:1002300002000020B8440020002114E00122FE4BFF
:100240001A6000F080021AB102221B1F1A6002E03D
:100250000222F94B1A600122F74B1B1F1A6042065B
:10026000100E4A1CD1B20829E8DB704710B50446CD
:100270000820F149091F0860C4F30720FFF7DCFFDD
:10028000E0B2FFF7D9FF10BD10B504460820EA49D7
:1002900008602046FFF7D0FF10BD10B504460820C7
:1002A000E549091F08602046FFF7C6FF10BD10B5DD
:1002B0000421E148143800F0C4FE142000F0D2FB01
:1002C0000421DD48143800F0BAFE142000F0CAFB07
:1002D000C020FFF7D9FF2120FFF7DFFFC120FFF784
:1002E000D3FF1220FFF7D9FFC520FFF7CDFF322043
:1002F000FFF7D3FF3C20FFF7D0FFC720FFF7C4FF75
:10030000C120FFF7CAFF3620FFF7BEFF6820FFF7C6
:10031000C4FF3A20FFF7B8FF5520FFF7BEFFB1201A
:10032000FFF7B2FF0020FFF7B8FF1820FFF7B5FF77
:10033000B620FFF7A9FF0A20FFF7AFFFA220FFF7C3
:10034000ACFFF220FFF7A0FF0020FFF7A6FF26205A
:10035000FFF79AFF0120FFF7A0FFE020FFF794FFCF
:100360000F20FFF79AFF2020FFF797FF1E20FFF7CF
:1003700094FF0920FFF791FF1220FFF78EFF0B205B
:10038000FFF78BFF5020FFF788FFBA20FFF785FFAC
:100390004420FFF782FF0920FFF77FFF1420FFF7BB
:1003A0007CFF0520FFF779FF2320FFF776FF212050
:1003B000FFF773FF0020FFF770FFE120FFF764FFF6
:1003C0000020FFF76AFF1920FFF767FF1920FFF7EA
:1003D00064FF0020FFF761FF1220FFF75EFF072098
:1003E000FFF75BFF2D20FFF758FF2820FFF755FF91
:1003F0003F20FFF752FF0220FFF74FFF0A20FFF7D1
:100400004CFF0820FFF749FF2520FFF746FF2D206E
:10041000FFF743FF0F20FFF740FF1120FFF734FFE6
:10042000782000F01FFB2920FFF72EFF10BD2DE9DB
:10043000F04104460D4616461F462A20FFF724FFCA
:10044000C4F30720FFF729FFE0B2FFF726FFC6F34A
:100450000720FFF722FFF0B2FFF71FFF2B20FFF767
:1004600013FFC5F30720FFF718FFE8B2FFF715FFEA
:10047000C7F30720FFF711FFF8B2FFF70EFF2C209C
:10048000FFF702FFBDE8F0812DE9F04106460C467A
:1004900015466B1E621E00210846FFF7C8FF0027A5
:1004A0000DE04FF0000806E030B2FFF7DFFE08F184
:1004B00001001FFA80F8A845F6DB781C87B2A74236
:1004C000EFDBBDE8F0812DE9F04707460C46154605
:1004D0001E46DDF82080A8F10103721E2946204641
:1004E000FFF7A5FFA9460EE0A24606E038B2FFF7E7
:1004F000BDFE0AF101001FFA80FAB245F6DB09F1F0
:1005000001001FFA80F9C145EEDBBDE8F0872DE957
:10051000F05F06460F4690469946DDF828B0474DF5
:1005200007F1170306F1170239463046FFF77FFF40
:1005300008EBC80005EBC0054FF0000A18E00024E6
:100540000FE028780121A140084020B10FFA89F07E
:10055000FFF78CFE03E00FFA8BF0FFF787FE601CBD
:10056000C4B2082CEDDB6D1C0AF1010000F0FF0A9B
:10057000BAF1480FE3DBBDE8F09F2DE9F05F0746D5
:10058000884614469946DDF828B02D4E08F11F0321
:1005900007F11F0241463846FFF749FF06EBC41634
:1005A0004FF0000A18E000250FE030780121A94043
:1005B000084020B10FFA89F0FFF758FE03E00FFA68
:1005C0008BF0FFF753FE681CC5B2082DEDDB761CDF
:1005D0000AF1010000F0FF0ABAF1800FE3DBBDE889
:1005E000F09F184A115470472DE9F84FF0204FF44E
:1005F000A0730022114600901046FFF764FFDBE075
:100600000025D5E00026B2E00A2096FBF0F100FBC1
:10061000116000F0FF0A0A2096FBF0F0C4B24FEA26
:100620004A104FF4A07190FBF1F201FB120087B267
:10063000054800EBC61909E0140C0140C000002079
:100640003807002004000020B812002005EB4410F9
:1006500000F11F0307F11F00B0F5A07F00DA01E0F1
:100660004FF4A070024605EB4410002802DD05EBB4
:10067000441000E0002001463846FFF7D8FE4FF056
:10068000000829E04FEAE87108EB917105EB44128C
:1006900002EBA101002900DA18E04FF0000B11E095
:1006A00099F80000012101FA0BF1084018B1D34874
:1006B000FFF7DCFD02E00020FFF7D8FD0BF10100A1
:1006C00000F0FF0BBBF1080FEADB00BF08F10100EF
:1006D00000F0FF0809F10109B8F1800FD2DB05EB4A
:1006E00044101F30F02841DBC54800EBC61907F164
:1006F0001F00B0F5A07F00DA01E04FF4A0700246C1
:1007000005EB4411F0233846FFF791FE4FF0000847
:1007100029E04FEAE87108EB917105EB441202EB16
:10072000A101F02900DB18E04FF0000B11E099F86F
:100730000000012101FA0BF1084018B1AF48FFF7A2
:1007400095FD02E00020FFF791FD0BF1010000F0A4
:10075000FF0BBBF1080FEADB00BF08F1010000F05E
:10076000FF0809F10109B8F1800FD2DB761C642E75
:10077000FFF64AAF0020A34902F094F9074602F0C1
:10078000B3FA05EB4010001D84B200209D4902F031
:1007900089F9074602F0A8FA05EB401086B24FF43B
:1007A000A0733246002108460094FFF78CFE2D1FEF
:1007B00015F5207FBFF626AF9348008800283FF448
:1007C0001FAFBDE8F88F2DE9F8430546F0204FF440
:1007D000A0730022114600901046FFF774FE28E037
:1007E0002E4623E000241AE0301990FBF5F105FBBA
:1007F0001100C7B207B9B32704EB4400C000F021D1
:1008000090FBF1F201FB1208002000907F48C25DCE
:100810004FF4784341460020FFF779FE641C0A2C10
:10082000E2DB4FF47A7000F01DF9761E002ED9DC61
:1008300000BF754800880028D2D0BDE8F8832DE9B4
:10084000F8430546F0204FF4A073002211460090B3
:100850001046FFF738FE28E0002623E000241AE0C7
:10086000301990FBF5F105FB1100C7B207B9B327AA
:1008700004EB4400C000F02190FBF1F201FB1208F0
:10088000002000906148C25D4FF47843414600204B
:10089000FFF73DFE641C0A2CE2DB4FF47A7000F097
:1008A000E1F8761CAE42D9DB00BF5748008800282B
:1008B000D2D0BDE8F8832DE9F8430546F0204FF487
:1008C000A0730022114600901046FFF7FCFD29E0BE
:1008D0002E4624E000241BE0301990FBF5F105FBC7
:1008E0001100C7B207B9B32760014FF4A07190FBA4
:1008F000F1F201FB12001FFA80F80020009043483B
:10090000C25D4FF4784300214046FFF736FE641C79
:100910000A2CE1DB4FF47A7000F0A4F8761E002E6A
:10092000D8DC00BF384800880028D1D0BDE8F88363
:100930002DE9F8430546F0204FF4A073002211463C
:1009400000901046FFF7BFFD29E0002624E00024B8
:100950001BE0301990FBF5F105FB1100C7B207B998
:10096000B32760014FF4A07190FBF1F201FB12007C
:100970001FFA80F8002000902448C25D4FF47843AD
:1009800000214046FFF7F9FD641C0A2CE1DB4FF41F
:100990007A7000F067F8761CAE42D8DB00BF1A48C8
:1009A00000880028D1D0BDE8F88310B50446174868
:1009B0000078F02803D12046FFF7BAFF1DE0134866
:1009C0000078F12803D12046FFF775FF15E00F48A6
:1009D0000078F22803D12046FFF731FF0DE00B48E5
:1009E0000078F32803D12046FFF7EDFE05E0074825
:1009F0000078F42801D1FFF7F7FD10BD00F8FFFFE4
:100A0000B812002000002440B84400200400002058
:100A100000BF704770B504460D4600BF40216A48CC
:100A200001F09EFE0028F9D0E1B2674801F02AFEED
:100A3000204670BD4FF0E020006920F004004FF028
:100A4000E02108610920614908700846007800EB40
:100A50004001C1EBC0104FF6FF7101EAC0005C49D4
:100A60000880704701465A4A12884A434FF0E023F3
:100A70005A6100229A6101221A6100BF4FF0E02200
:100A8000106900F001021AB100F48032002AF5D09A
:100A900000224FF0E0231A619A61704701464B4AE9
:100AA00012784A434FF0E0235A6100229A610122F2
:100AB0001A6100BF4FF0E022106900F001021AB184
:100AC00000F48032002AF5D000224FF0E0231A61B2
:100AD0009A61704710B501211C2000F025FD01210D
:100AE000084600F021FD0121880300F01DFDFFF7FD
:100AF000A1FF10BD08B50121364800F0C4FA4FF639
:100B0000FF70ADF8000002208DF8020010208DF873
:100B100003006946304800F0E5F94FF6FF70ADF884
:100B2000000010208DF8030069462C4800F0DAF927
:100B30004FF47040ADF8000002208DF8020048200C
:100B40008DF803006946244800F0CCF9012000F03C
:100B500022FB002000F055FC002000F01CFB08BD2B
:100B600010B5FFF7B7FFFFF7C5FF10BD7FB505460E
:100B70000C460121022000F0E4FCADF80850ADF86D
:100B800004400020ADF80A00ADF8060001A91448A1
:100B900000F002FE01221146114801F074F91D20F7
:100BA0008DF8000000208DF8010003208DF8020070
:100BB00001208DF80300684600F0CBF800210848BA
:100BC00001F046F97FBD000000380140B800002068
:100BD000BA00002000023000000C01400008014073
:100BE00000040040704700BFFEE770477047704741
:100BF000704770477047704710B50121094801F0F0
:100C0000F0FB18B10121074801F0FCFB10BD00BF4B
:100C1000FEE700BFFEE700BFFEE770477047704782
:100C2000704700000004004010B586B00446012162
:100C300044F2050000F078FC4FF40070ADF81400A9
:100C400003208DF8160018208DF8170005A93B48E1
:100C500000F048F94FF48060ADF8140004208DF8DE
:100C6000170005A9354800F03DF925208DF8000052
:100C700003208DF801008DF8020001208DF803009B
:100C8000684600F066F801940020ADF80800ADF861
:100C90000A00ADF80C00ADF810000C20ADF80E0005
:100CA00001A9274801F0F5FB012240F22551244813
:100CB00001F087FC0121224801F077FC06B010BD4D
:100CC00010B540F225511E4801F060FD10B31C48DC
:100CD00001F0DCFCC4B21B48008800F40040C8B935
:100CE0001848008800F4804060B10A2C03D000202E
:100CF000144908801FE01348008840F4004011495F
:100D0000088010BD0D2C06D10E48008840F48040AC
:100D10000C4908800FE00B4908782146FFF761FC79
:100D200008480088401C0749088008460088C728F2
:100D300001DD0020088000BFE3E70000000801405B
:100D400000380140B844002031490143314A116064
:100D5000704770B5002100230F22C47804B32D4CD6
:100D6000246804F4E064C4F5E064210AC1F10403DA
:100D7000CA40447804FA03F18478144021430901FD
:100D8000254C0678A155047804F01F050124AC40D9
:100D900005786D11AD0005F1E025C5F8004109E0C9
:100DA000047804F01F050124AC401C4D0678761130
:100DB00045F8264070BD1A4A0A400243154B1B1FD6
:100DC0001A60704739B1134A121D12680243114B61
:100DD0001B1D1A6006E00F4A121D126882430D4B5C
:100DE0001B1D1A607047042808D14FF0E0210969E3
:100DF00041F004014FF0E022116107E04FF0E021E3
:100E0000096921F004014FF0E022116170470000F0
:100E10000000FA050CED00E000E400E080E100E0F5
:100E200080FFFF1F10B50446CC48844208D1012141
:100E3000042000F093FB0021042000F08FFB46E02B
:100E4000C748844208D10121082000F087FB002117
:100E5000082000F083FB3AE0C248844208D1012117
:100E6000102000F07BFB0021102000F077FB2EE02B
:100E7000BD48844208D10121202000F06FFB0021F1
:100E8000202000F06BFB22E0B848844208D1012109
:100E9000402000F063FB0021402000F05FFB16E0E3
:100EA000B348844208D10121802000F057FB002183
:100EB000802000F053FB0AE0AE48844207D10121B4
:100EC000801500F04BFB0021A01500F047FB10BD82
:100ED00010B50121084600F041FB0021012000F07F
:100EE0003DFB10BD2DE9F041024600250026002003
:100EF00000230024002791F803C00CF00F0591F89F
:100F000003C00CF0100CBCF1000F03D091F802C02C
:100F10004CEA050591F800C0BCF1000F31D014680F
:100F200000202BE04FF0010C0CFA00F3B1F800C0E8
:100F30000CEA03069E4220D183004FF00F0C0CFAFE
:100F400003F7BC4305FA03FC4CEA040491F803C020
:100F5000BCF1280F06D14FF0010C0CFA00FCC2F8CE
:100F600014C00AE091F803C0BCF1480F05D14FF05E
:100F7000010C0CFA00FCC2F810C0401C0828D1D3A8
:100F80001460B1F800C0BCF1FF0F34DD54680020DC
:100F90002EE000F1080C4FF0010808FA0CF3B1F84C
:100FA00000C00CEA03069E4221D183004FF00F0CD3
:100FB0000CFA03F7BC4305FA03FC4CEA040491F86D
:100FC00003C0BCF1280F05D100F1080C08FA0CF899
:100FD000C2F8148091F803C0BCF1480F07D100F1AA
:100FE000080C4FF0010808FA0CF8C2F81080401CF9
:100FF0000828CED35460BDE8F0814FF6FF71018020
:10100000022181700421C17070470246002093685C
:101010000B400BB1012000E00020704701468868BA
:1010200080B2704702460020D3680B400BB101200C
:1010300000E0002070470146C86880B27047016137
:101040007047416170470AB1016100E0416170473A
:10105000C16070474FF480320A43826181618261CE
:1010600082698269704702460020434B18684FF638
:101070008073184040EA021008433F4B18607047E5
:101080003E49C8617047F0B50A460023002400219C
:10109000002500F00046B6F1004F02D1364EF1694E
:1010A00001E0354E7168C0F3034583B200F4401689
:1010B000B6F5401F08D121F070612F4E766826F0FA
:1010C00070662D4F7E6012E000F48016B6F5801F2A
:1010D00006D1032606FA05F4A14341F0706106E04B
:1010E000460D360103FA06F6B14341F0706122B1B4
:1010F000460D360103FA06F6314300F00046B6F11C
:10110000004F02D11C4EF16101E01B4E7160F0BD39
:1011100030B500228B071C0F0F2303FA04F2164B85
:1011200008338C1053F824309343134C08348D103B
:1011300044F8253023468C1053F824308C07240FB4
:1011400000FA04F423430C4C08348D1044F8253085
:1011500030BD0A49DC3108607047000000080140DA
:10116000000C014000100140001401400018014033
:10117000001C01400020014000000140000020420E
:1011800010B50121080700F0F6F900214FF080505A
:1011900000F0F1F910BD2A4908627047284908613A
:1011A000704701460020274A106820F0E0000843FD
:1011B000106070472249A0310860704710B50246A0
:1011C0000020204B186820F00300104318601E4BCD
:1011D0001B6843F004031C4C2360012901D130BF7C
:1011E00000E020BF184B1B6823F00403164C23605B
:1011F00010BD1448006840F0040012490860084619
:10120000006840F0020008600F48006840F00400E9
:101210000D49086000BF00BF30BF70470146002085
:10122000084A52680A400AB1012000E000207047D5
:101230000449096841EA8001024A116070470000D0
:1012400000000E420070004010ED00E0DF48006832
:1012500040F00100DD49086008464068DC4908406C
:10126000DA49486008460068DA490840D74908600A
:101270000846006820F4802008600846406820F492
:10128000FE0048604FF41F0088607047CF4909682E
:1012900021F48031CD4A11601146096821F4802182
:1012A0001160B0F5803F03D0B0F5802F0ED106E07D
:1012B000C649096841F48031C44A116007E0C34956
:1012C000096841F4A021C14A116000E000BF00BFDD
:1012D000704710B501460022002300204A11012A60
:1012E00002D1BA4C236806E0022A02D1B74C236A25
:1012F00001E0B64C636A01F01F02012494401C40D7
:101300000CB1012000E0002010BD38B50020009095
:101310000024002500BF3120FFF7DBFF05460098C1
:10132000401C00900098B0F5A06F01D0002DF2D0C5
:101330003120FFF7CEFF08B1012400E00024204651
:1013400038BD01460020A14A106820F0F80040EAAC
:10135000C10010607047A049086070470246002035
:101360009A4B586820F47C1042EA01031843974BCB
:101370005860704798490866704701460020934AB4
:10138000506820F003000843506070478F48406861
:1013900000F00C007047014600208C4A506820F095
:1013A000F00008435060704701460020874A5068AB
:1013B00020F4E06008435060704701460020834AF3
:1013C000506820F4605040EAC1005060704729B175
:1013D0007E4A527A02437D4B5A7204E07B4A527A2B
:1013E00082437A4B5A7270477B49D8310860704704
:1013F00001460020754A506820F440400843506080
:1014000070470021714A20321170704A82F8201012
:10141000012802D004280AD104E001216B4A2032BD
:10142000117005E00521694A2032117000E000BF0B
:1014300000BF70476949086070476449096A014301
:10144000624A11627047654944390860704730B597
:1014500000210022002400235C4D6D6805F00C0182
:1014600021B1042905D0082923D105E05C4D056090
:1014700022E05B4D05601FE0544D6D6805F470126D
:10148000524D6D6805F48034022505EB92421CB97B
:10149000544D554305600BE04C4D6D6805F4003527
:1014A0001DB1504D5543056002E04D4D554305605B
:1014B00002E04B4D056000BF00BF444D6D6805F074
:1014C000F0010909484D6B5C0568DD4045603F4D02
:1014D0006D6805F4E061090A434D6B5C4568DD40C9
:1014E00085603A4D6D6805F46051C90A3E4D6B5CEC
:1014F0004568DD40C560354D6D6805F44041890B98
:101500003A4D6B5CC568B5FBF3F5056130BD29B19B
:101510002E4A526902432D4B5A6104E02B4A52690C
:1015200082432A4B5A61704729B1284A9269024383
:10153000264B9A6104E0254A92698243234B9A61C3
:10154000704729B1214AD2690243204BDA6104E095
:101550001E4AD26982431D4BDA61704729B11B4A8A
:10156000D2680243194BDA6004E0184AD268824319
:10157000164BDA60704729B1144A12690243134BC3
:101580001A6104E0114A12698243104B1A617047D4
:1015900012494039086070470F49C86470470B49C9
:1015A000C87170470948406A40F080700749486236
:1015B000704701460020054A92680A400AB101209E
:1015C00000E0002070470149887270470010024017
:1015D0000000FFF8FFFFF6FE000042428004424296
:1015E00000127A0000093D00BA440020CA440020DD
:1015F00010B50446FE48844208D10121C014FFF70B
:10160000ADFF0021E014FFF7A9FFC4E0B4F1804F63
:1016100008D101210846FFF7AEFF00210120FFF7A6
:10162000AAFFB8E0F348844208D101210220FFF765
:10163000A2FF00210220FFF79EFFACE0EE488442AB
:1016400008D101210420FFF796FF00210420FFF7B5
:1016500092FFA0E0E948844208D101210820FFF769
:101660008AFF00210820FFF786FF94E0E4488442C7
:1016700008D101211020FFF77EFF00211020FFF785
:101680007AFF88E0DF48844208D101212020FFF75B
:1016900072FF00212020FFF76EFF7CE0DA488442D1
:1016A00008D101214014FFF759FF00216014FFF712
:1016B00055FF70E0D548844209D10121C804FFF7E5
:1016C0004DFF00214FF40020FFF748FF63E0D048B2
:1016D000844209D101210805FFF740FF00214FF4A2
:1016E0008010FFF73BFF56E0CA48844209D1012130
:1016F0004805FFF733FF00214FF40010FFF72EFFDE
:1017000049E0C548844208D101214020FFF733FF5A
:1017100000214020FFF72FFF3DE0C048844208D160
:1017200001218020FFF727FF00218020FFF723FF02
:1017300031E0BB48844208D101218015FFF71BFF2F
:101740000021A015FFF717FF25E0B648844209D114
:1017500001210804FFF702FF00214FF48030FFF75A
:10176000FDFE18E0B048844209D101214804FFF78A
:10177000F5FE00214FF40030FFF7F0FE0BE0AB4820
:10178000844208D101218804FFF7E8FE00214FF4CC
:101790008020FFF7E3FE10BD00220288944B9842A0
:1017A0000ED0994B98420BD0B0F1804F08D0914B9E
:1017B000984205D0904B984202D0904B984204D169
:1017C0004FF68F731A404B881A438D4B984207D0BF
:1017D0008C4B984204D04FF6FF431A40CB881A43F3
:1017E00002808B8883850B880385814B98420BD0C0
:1017F000854B984208D08B4B984205D08A4B984233
:1018000002D08A4B984201D10B7A0386012383824E
:10181000704770B5002400220023058C4FF6FE7639
:1018200035400584028C8388048B4FF68F752C40DD
:10183000B51E2C400D882C43751E2A400D892A4365
:101840004D882A436A4DA8420BD06F4DA84208D05C
:10185000744DA84205D0744DA84202D0734DA842E1
:1018600013D14FF6F7752A404D892A434FF6FB7581
:101870002A408D882A434FF6FF652B404FF6FF55CF
:101880002B408D892B43CD892B4383800483CD88C6
:101890008586028470BD70B5002400220023058C6B
:1018A0004FF6EF7635400584028C8388048B48F62A
:1018B000FF752C404FF6FF452C400D884FF6FF7604
:1018C00006EA05252C434FF6DF752A400D8906EA06
:1018D00005152A434D8806EA05152A43444DA842BA
:1018E00002D0494DA8421DD14FF67F752A404D893F
:1018F0004FF6FF7606EA05152A434FF6BF752A40D4
:101900008D8806EA05152A434FF6FF352B404FF226
:10191000FF752B408D8906EA85052B43CD8906EAA4
:1019200085052B4383800483CD880587028470BDA1
:1019300070B5002400220023058C4FF6FF66354069
:101940000584028C8388848B4FF68F752C404FF66C
:10195000FC752C400D882C434FF6FF552A400D890D
:101960004FF6FF7606EA05252A434D8806EA052547
:101970002A431F4DA84202D0234DA8421DD14FF249
:10198000FF752A404D894FF6FF7606EA05252A4362
:101990004FF6FF352A408D8806EA05252A434EF684
:1019A000FF752B404DF6FF752B408D8906EA051516
:1019B0002B43CD8906EA05152B4383808483CD888C
:1019C0008587028470BD70B5002200230024058C39
:1019D0004EF6FF7635400584038C8488828B48F66A
:1019E000FF752A404FF6FF452A400D8820E0000091
:1019F000002C01400004004000080040000C0040A2
:101A0000001000400014004000340140004C014030
:101A1000005001400054014000180040001C0040EC
:101A200000200040004001400044014000480140C7
:101A30004FF6FF7606EA05252A434DF6FF752B4043
:101A40000D8906EA05352B434D8806EA05352B43FB
:101A5000FA4DA84202D0FA4DA84208D14BF6FF75C4
:101A60002C408D894FF6FF7606EA85152C4384803D
:101A70008283CD88A0F84050038470BD828B4FF2E2
:101A8000FF331A408283828B4FF6FF7303EA0123F0
:101A90001A4382837047F0B50C4615460022002198
:101AA0000026078C4EF6FF7C07EA0C070784828B22
:101AB000018C4FF6FF7707EA043640F6FF473A40BD
:101AC0004FF6FF7707EA05273A434FF6FF7707EA15
:101AD00003373A43D94FB8420ED0D94FB8420BD052
:101AE000B0F1804F08D0D74FB84205D0D64FB8429A
:101AF00002D0D64FB84206D14DF6FF77394046F4B2
:101B00008057394305E047F6FF57394044F4805782
:101B1000394382830184F0BD828B4FF6F3731A4000
:101B20008283828B0A4382837047F0B50C46154648
:101B3000002200210026078C4FF6FF6C07EA0C07F5
:101B40000784828B018C4FF6FF7707EA04264FF655
:101B50000C773A404FF6FF7707EA03172F433A43D3
:101B6000B64FB8420ED0B64FB8420BD0B0F1804F4E
:101B700008D0B44FB84205D0B34FB84202D0B34FEB
:101B8000B84206D14FF6FF57394046F480773943C3
:101B900005E04FF2FF57394044F4807739438283A0
:101BA0000184F0BD028B4FF2FF331A400283028B97
:101BB0004FF6FF7303EA01231A4302837047F0B51F
:101BC0000C461546002200210026078C4FF6EF7CBC
:101BD00007EA0C070784028B018C4FF6FF7707EAB0
:101BE000041640F6FF473A404FF6FF7707EA0337FF
:101BF0003A434FF6FF7707EA05273A438F4FB8423B
:101C00000ED08F4FB8420BD0B0F1804F08D08D4F1F
:101C1000B84205D08C4FB84202D08C4FB84206D1A2
:101C20004FF6DF77394046F01007394305E04FF6AD
:101C30005F77394044F01007394302830184F0BDD7
:101C4000028B4FF6F3731A400283028B0A4302831E
:101C50007047F0B50C46154600220021068C4FF661
:101C6000FE773E400684028B018C4FF60C763240A4
:101C70007E1C06EA03162E433243704EB0420ED04D
:101C80006F4EB0420BD0B0F1804F08D06D4EB042D5
:101C900005D06D4EB04202D06C4EB04206D14FF628
:101CA000FD76314044F00106314305E04FF6F5760C
:101CB000314044F00106314302830184F0BD70B528
:101CC00005460C465D4885420ED05D4885420BD0E6
:101CD000B5F1804F08D05B48854205D05A4885420F
:101CE00002D05A48854200D100E000BF208850B998
:101CF0002389A28861882846FFF7ABFFE188284640
:101D0000FFF79EFF25E0208804280AD12389A288B6
:101D100061882846FFF753FFE1882846FFF742FF16
:101D200017E0208808280AD12389A28861882846DC
:101D3000FFF7FBFEE1882846FFF7EEFE09E0238966
:101D4000A28861882846FFF7A6FEE1882846FFF7AB
:101D500095FE70BD2DE9F04105460C460026012791
:101D6000608808B9022600E00026A088012801D179
:101D7000022700E001272088A0B92389A288618872
:101D80002846FFF766FFE1882846FFF759FF2389B9
:101D90003A4631462846FFF712FFE1882846FFF70A
:101DA00001FF13E02389A28861882846FFF707FF17
:101DB000E1882846FFF7F6FE23893A463146284651
:101DC000FFF747FFE1882846FFF73AFFBDE8F081BB
:101DD0000A884B881A438B881A43CB881A430B898D
:101DE0001A434B891A438B891A43A0F84420704741
:101DF0004FF6FF71818000210180C1804180017216
:101E000070470021018041808180C1800181418132
:101E10008181C18170470021018041800121818041
:101E20000021C180018170470021018041808180B3
:101E3000C18001814181818170470000002C0140F7
:101E4000003401400004004000080040000C004045
:101E500021B1028842F00102028004E002884FF6BC
:101E6000FE731A400280704731B1B0F8442042F44A
:101E70000042A0F8442005E0B0F84420C2F30E026E
:101E8000A0F8442070471AB183890B43838102E094
:101E900083898B43838170478182704741EA0203C3
:101EA000A0F8483070471AB183890B43838102E060
:101EB00083898B438381704701894FF6F872114003
:101EC000018170470A46002101894FF68F7319403E
:101ED00011430181704730B504460D46294620461E
:101EE000FFF7F0FF208940F00700208130BD2DE989
:101EF000F04104460D4616461F46602D06D13B466E
:101F0000012231462046FFF75AFE05E03B460122FA
:101F100031462046FFF79DFE29462046FFF7D2FFB7
:101F2000208940F007002081BDE8F08130B50C46E3
:101F300000210189C9B24FF6FF7505EA0325154353
:101F400025432943018130BD2DE9F04105460E4668
:101F500017469846002443463A4631462846FFF73E
:101F6000E5FF2C894FF6F870044044F007044FF663
:101F70008F70044044F070042C81BDE8F081F0B50E
:101F800004460D4616461F463B4632462946204625
:101F9000FFF7CCFF208940F480402081F0BD01850F
:101FA000828270470A46002101884FF68F731940DC
:101FB000114301807047F0B50C4615461E460021BE
:101FC000002200230189028B038C4FF6F8773940F9
:101FD00021434FF6FC473A4040F201173A434FF68F
:101FE000DD773B404FF6FF7707EA06172F433B4369
:101FF000018102830384F0BD0A460021018B4FF664
:102000008F7319401143018370470A460021018BE9
:1020100048F6FF7319404FF6FF7303EA0223194392
:10202000018370470A460021818B4FF68F73194058
:102030001143818370470A460021818B48F6FF7364
:1020400019404FF6FF7303EA022319438183704757
:1020500021B1028842F08002028004E002884FF63B
:102060007F731A400280704721B1828842F00402D7
:10207000828004E082884FF6FB731A4082807047AA
:1020800021B1828842F00802828004E082884FF603
:10209000F7731A408280704721B1828842F00102B2
:1020A000828004E082884FF6FE731A408280704777
:1020B0000A460021018B4FF6F77319401143018343
:1020C00070470A460021018B4FF2FF7319404FF60B
:1020D000FF7303EA02231943018370470A46002174
:1020E000818B4FF6F77319401143818370470A467D
:1020F0000021818B4FF2FF7319404FF6FF7303EA03
:1021000002231943818370470A460021018B4FF651
:10211000FB7319401143018370470A460021018B6C
:102120004FF6FF3319404FF6FF7303EA02231943BA
:10213000018370470A460021818B4FF6FB731940DB
:102140001143818370470A460021818B4FF6FF338C
:1021500019404FF6FF7303EA022319438183704746
:102160000A460021018B4FF67F731940114301830A
:1021700070470A460021018BC1F30E014FF6FF7331
:1021800003EA02231943018370470A460021818B29
:102190004FF67F7319401143818370470A4600212F
:1021A000818BC1F30E014FF6FF7303EA022319433B
:1021B000818370470A460021018C4FF6FD73194058
:1021C0001143018470470A460021018C4FF6F773D2
:1021D00019401143018470470A460021018C4FF6D3
:1021E000DF7319404FF6FF7303EA021319430184AA
:1021F00070470A460021018C4FF67F7319404FF655
:10220000FF7303EA02131943018470470A46002151
:10221000018C4FF6FF5319404FF6FF7303EA022378
:102220001943018470470A460021018C4FF2FF7365
:1022300019404FF6FF7303EA0223194301847047E4
:102240000A460021018C4DF6FF7319404FF6FF73CB
:1022500003EA023319430184704730B50023012497
:102260008C40A3B2048C9C430484048C02FA01F5D4
:10227000ADB22C43048430BD30B5002304248C401F
:10228000A3B2048C9C430484048C02FA01F5ADB221
:102290002C43048430BD70B503460020002418464A
:1022A000183001258D40ACB21D8CA5431D8409B1A9
:1022B000082909D100EB6100056825F0700505606B
:1022C0000568154305600EE00D1FC5F34E05284453
:1022D000056825F4E045056005684FF6FF7606EAD7
:1022E00002263543056070BD21B1028842F002022A
:1022F000028004E002884FF6FD731A4002807047A6
:1023000021B1028842F00402028004E002884FF604
:10231000FB731A400280704721B1828842F080022C
:10232000828004E082884FF67F731A408280704773
:1023300002884FF6F7731A40028002880A4302802F
:10234000704782884FF68F731A40828082880A43D2
:102350008280704702894FF6F8731A400281028921
:102360000A430281704702894FF67F731A40028147
:1023700002890A43028170478184704781857047D2
:10238000818670470187704781877047A0F84010A9
:10239000704702884FF6FF431A40028002880A43C2
:1023A000028070470146888E70470146088F70474B
:1023B0000146888F70470146B1F8400070470146DA
:1023C000888C70470146088D704702460020138AAA
:1023D0000B400BB1012000E000207047CA4302828D
:1023E000704730B50246002000230024158A05EA14
:1023F0000103958905EA010413B10CB1012000E045
:10240000002030BDCA4302827047000010B5044668
:10241000FB48844209D101218803FFF79FF800217E
:102420004FF48040FFF79AF832E0F648844209D131
:1024300001214804FFF79FF800214FF40030FFF717
:102440009AF825E0F048844209D101218804FFF779
:1024500092F800214FF48020FFF78DF818E0EB4848
:10246000844209D10121C804FFF785F800214FF407
:102470000020FFF780F80BE0E548844208D10121F5
:102480000805FFF778F800214FF48010FFF773F884
:1024900010BD2DE9F04786B005460E460024A24641
:1024A00000BFA1460027B08900B100BF2F462C8A8B
:1024B0004CF6FF700440F08804432C82AC894EF641
:1024C000F3100440B08831890843718908430443FC
:1024D000AC81AC8A4FF6FF400440B0890443AC8223
:1024E00001A8FEF7B4FFC648874202D1DDF810A06C
:1024F00001E0DDF80CA0A88900F4004040B10AEB2F
:10250000CA0000EB0A1031684900B0FBF1F807E09F
:102510000AEBCA0000EB0A1031688900B0FBF1F841
:102520006420B8FBF0F004012009642101FB10894C
:10253000A88900F4004040B1322000EBC900B0FB94
:10254000F1F000F00700044308E0322000EB09102E
:102550006421B0FBF1F000F00F0004432C8106B0C1
:10256000BDE8F0874FF41651016000218180C180E1
:1025700001810C21418100218181704710B5024603
:102580000020108A4FF2FF0318400B884C88234329
:102590008C882343CC8823431843108210BD00212C
:1025A000018041808180C180704721B1828942F4DD
:1025B0000052828104E082894DF6FF731A408281C5
:1025C0007047F0B50346002400260025002040F6A1
:1025D0006A17B94200D100BF1846C1F3421401F096
:1025E0001F06012707FA06F5012C01D10C3004E083
:1025F000022C01D1103000E014301AB107682F43CB
:10260000076002E00768AF430760F0BD1AB1838A34
:102610000B43838202E0838A8B4383827047028A62
:102620004FF6F0731A400282028A0A430282704710
:1026300082894FF2FF731A40828182890A43828124
:10264000704721B1828942F00202828104E08289CE
:102650004FF6FD731A4082817047028A4FF6DF738E
:102660001A400282028A0A430282704721B1028A1A
:1026700042F48042028204E0028A4BF6FF731A4061
:1026800002827047C1F30802828070470146888841
:10269000C0F308007047818941F0010181817047D2
:1026A000028BD2B20283028B42EA0122028370477C
:1026B000028B02F47F420283028B0A43028370473B
:1026C00021B1828A42F02002828204E0828A4FF69F
:1026D000DF731A408282704721B1828A42F0100271
:1026E000828204E0828A4FF6EF731A40828270473A
:1026F00021B1828A42F00802828204E0828A4FF687
:10270000F7731A408282704721B1828942F40042F5
:10271000828103E08289C2F30E028281704721B177
:10272000828A42F40062828204E0828A4FF2FF735E
:102730001A4082827047828A4FF6FB731A40828267
:10274000828A0A438282704721B1828A42F0020261
:10275000828204E0828A4FF6FD731A4082827047BB
:1027600002460020B1F5007F00D100BF13880B4066
:102770000BB1012000E00020704701F40072B2F5B7
:10278000007F00D100BFCA430280704770B5024687
:10279000002400230025002040F66A16B14200D133
:1027A00000BFC1F3421501F01F03012606FA03F32F
:1027B000012D02D19689334006E0022D02D1168AFE
:1027C000334001E0968A33400C12012606FA04F4E5
:1027D0001688344013B10CB1012000E0002070BD18
:1027E00010B50022002340F66A14A14200D100BFB8
:1027F0000A1201249440A3B2DC43048010BD0000FF
:10280000003801400044004000480040004C0040B7
:10281000005000400948804709480047FEE7FEE7AE
:10282000FEE7FEE7FEE7FEE7FEE7FEE7FEE7FEE780
:1028300004480549054A064B704700003329000843
:10284000ED00000848450020484B00204847002084
:10285000484700200CB50020019000906C480068AB
:1028600040F480306A49086000BF6948006800F49D
:10287000003000900198401C0190009818B9019810
:10288000B0F5A06FF1D16248006800F4003010B1DB
:102890000120009001E0002000900098012843D121
:1028A0005C48006840F010005A490860084600681B
:1028B00020F0030008600846006840F0020008604D
:1028C0005348406852494860084640684860084696
:1028D000406840F4806048600846406820F47C10FE
:1028E00048600846406840F4E810486008460068C0
:1028F00040F08070086000BF4548006800F000703C
:102900000028F9D04248406820F003004049486060
:102910000846406840F00200486000BF3C484068FC
:1029200000F00C000828F9D10CBD10B5FFF792FF9C
:1029300010BD10B53648006840F001003449086009
:1029400008464068344908403149486008460068F4
:10295000324908402E4908600846006820F480206B
:1029600008600846406820F4FE0048604FF41F00ED
:102970008860FFF7DAFF4FF000602949086010BD5A
:1029800010B5002100200022214B5B6803F00C01F0
:1029900021B1042906D0082928D107E0214B224C77
:1029A000236027E01F4B204C236023E0184B5B681B
:1029B00003F47010164B5B6803F48032022303EBC0
:1029C000904022B9194B4343174C23600DE0104B44
:1029D0005B6803F4003323B1144B4343124C236070
:1029E00003E0104B4343104C236003E00D4B0E4CAF
:1029F000236000BF00BF064B5B68C3F303130C4C9E
:102A0000E15C094B1B68CB40074C236010BD000004
:102A100000100240002002400000FFF8FFFFF6FE19
:102A200008ED00E000127A00D044002000093D00CB
:102A3000D444002070477047704770477047754610
:102A400000F02CF8AE4605006946534620F007001A
:102A5000854618B020B5FFF7EBFEBDE820404FF0EB
:102A600000064FF000074FF000084FF0000B21F078
:102A70000701AC46ACE8C009ACE8C009ACE8C00945
:102A8000ACE8C0098D46704710B50446AFF300802E
:102A90002046BDE81040FDF794BB00000048704799
:102AA000E44400202DE9F041C1F30A52A2F2FF36BE
:102AB0002F4A304B0D460446142E2FDA002E12DA20
:102AC00000F05EF80022134600F0CEF94CD2002D43
:102AD000BCBF4FF00045002446DB55EA040018BF98
:102AE000254D19D140E0DFF894C02CFA06F705EA2D
:102AF000070C5CEA040C08BFBDE8F08100F040F868
:102B00000022134600F0B0F92ED2002D03DD4FF461
:102B10008010F0400544BD43002425E0332EC8BF9B
:102B2000BDE8F081A6F1140C4FF0FF3727FA0CF73F
:102B30003C4208BFBDE8F08100F0CCF9002213460A
:102B400000F092F910D2002D0DDD142E08BF6D1C7F
:102B500009D0C6F13400012101FA00F02044A0425E
:102B600038BF6D1C0446BC4329462046BDE8F081B1
:102B70009C7500883CE4377E0000F03FFFFF0F00AB
:102B800010B591EA030F48BF83F0004300F1B6810E
:102B9000841A71EB030C05D2121943EB0C03001BD2
:102BA00061EB0C01DFF824E14FEA1154A4EB135C54
:102BB0001EEA430F18BF9EEA445F73D023EA0E0358
:102BC000DCF1200E21EA045143F4801332D322FABF
:102BD0000CFE10EB0E0023FA0CFE41EB0E01CCF1C3
:102BE000200E03FA0EFE10EB0E0051F10001B1F5BC
:102BF000801FCCF1200E32D201EB045112FA0EF2FA
:102C0000BDE8104058BF7047401C38BF5FEA420221
:102C100018BF7047002814BF20F0010041F10001E7
:102C20004FEA410313F5001F38BF7047A1F1C041BF
:102C300000F014B9012A43EB0302ACF1200CDCF1E3
:102C40001F0E32BF4FF0000E23FA0CF310EB0300FF
:102C500041EB0451B4EB115FD0D0A1EB045101F56D
:102C6000801149085FEA300001EB04510ED350F1A6
:102C7000000038BF12FA0EFE08D1BDE81040C9E7C7
:102C8000401C38BF5FEA4202CAD1C3E7BDE810402A
:102C90004FEA410313F5001F38BF7047A1F1C0414F
:102CA00000F0DCB89EEA445F08D011EA5E0FBDE890
:102CB000104004BF01F0004100207047BDE8104003
:102CC00070B500F07DF800BF64FBBE3E0000E0FF81
:102CD000491058BFC1F140415B1058BFC3F1404398
:102CE0008B42EFF3008070474FEA41034FEA5353A2
:102CF000A3F58063D3F11E03C8BFD3F1210C0CDD13
:102D00004FF0004242EAC12242EA505232FA03FC3A
:102D10008CEAE17CACEBE1707047102BC4BF002063
:102D2000704703F5787CBCF1FF3F04D06FF00042A0
:102D300082EA2100704770B500F042F84992248081
:102D400000207047F2E7000051EA030C17D41CF58D
:102D5000801F58BFBCF5801F00F10680994218BF44
:102D6000704708BF9042704707D711F5801F58BFC2
:102D700013F5801F19D499427047894270471CF59A
:102D8000801F08D5BCF5801FF7D58B4218BF704750
:102D900008BF824270474FF4001C1CEB410F38BF44
:102DA0001CEB430F01D28B42704770B500F008F85E
:102DB000922449004FF000514FF08053FFF788BF35
:102DC0000EF1020E2EF0030E5EF8046B364205D4AF
:102DD000012A43EB030515F5001F12D8012841EB2A
:102DE000010C1CF5001F0CD80ED14FEAD17C15F553
:102DF000001F0CEB4C0C0CF1020C08BF4CEBD37C0D
:102E000004E04FF0080C01E04FEAD37C0CEB4C05DA
:102E100026FA05F606F00706B6F1040C06D20EEB0C
:102E2000860CBDE870404CF0010C6047DFE80CF008
:102E3000090B02024FF000414FF00000A1F5002104
:102E400070BD19461046012851EB010418BFD4F596
:102E5000001484BF002001F0004170BD0808A0F5F7
:102E600000114FEA3101704753EA010C17D41CF5E9
:102E7000801F58BFBCF5801F00F106808B4218BF31
:102E8000704708BF8242704707D713F5801F58BFAD
:102E900011F5801F19D48B4270479B4270471CF577
:102EA000801F08D5BCF5801FF7D5994218BF704721
:102EB00008BF904270474FF4001C1CEB430F38BF13
:102EC0001CEB410F01D2994270470FB40CBC03BCFC
:102ED000FFF76BBF91EA030F10B581F000413FF59A
:102EE00057AE83F0004300F009B8000010B591EA36
:102EF000030F48BF83F000433FF54AAE841A71EBDD
:102F0000030C07D212198CF0004C43EB0C03001B8E
:102F100061EB0C01DFF8A4E14FEA1154A4EB135C60
:102F20001EEA430F18BF9EEA445F00F0B08023EA18
:102F30006E03524221EA0451C3EB6E0338BF5B1E9D
:102F4000DCF1200E25D322FA0CFE10EB0E0043FA22
:102F50000CFE41EB0E01CCF1200E03FA0EFE10EB3D
:102F60000E0051F10001CCF1200E29D412FA0EF21C
:102F700001EB0451BDE8104058BF7047401C1CBF16
:102F8000B2F1004F704700280CBF491C20F001002F
:102F9000704712EB020E43EB030218BF4FF0010E15
:102FA0004EEA4202ACF1200CDCF11E0E54D943FA79
:102FB0000CFE10EB0E0051F1FF31CCF11E0ED5D5F9
:102FC0000EF1010E12FA0EFE404141EB010101EB40
:102FD000445C5FEA5C5C10D910EBDE7001EB0451DD
:102FE00038BFBEF1004FBDE8104018BF7047002841
:102FF0000CBF491C20F00100704730D24FEAD42C9E
:1030000011F5001124F400641BD0B1FA81F20B3ADF
:10301000A41AA41ED2F12003914030FA03F31943FD
:10302000904001EBCC71002C01EB0451BDE8104045
:10303000A8BF704701F1C0414FF0000001F000410E
:103040007047B0FA80F310FA03F100D110BDE41A12
:10305000173C4805C90AE4E701EB045110BD4910CB
:1030600001EB0451BDE810404FEA300002E04FF0A0
:10307000000170474A0008BF0042F8D0B2F5001FB7
:1030800028BF704701F000414FF0000070479EEAF2
:10309000445F07D011EA5E0FBDE8104004BF002175
:1030A00000207047BDE8104070B5FFF789FE00BFF3
:1030B00040DFF63E83F00041104670470000E0FF1D
:1030C000E030000800000020E4440000280100086F
:1030D000EC4D0008E4440020640600008C01000868
:1030E00012000102B0FF018316000130328010008F
:1030F000803100C0300840301C20300670B00150D4
:10310000F000483020443C2040332040302060E034
:103110003F601800200800000800FEFF3F00095132
:103120000332180C4149710F312AD007F8FF1F18DC
:103130000818034115E00408080845A148100A00D2
:103140000400070CF80004C00320056004C0C00997
:1031500033FE070F40192004E06004E04304F0460A
:1031600024D04474C8800FC87804C40404C22D61FC
:1031700003124042200A00002080006080016006A7
:10318000210311BA710C2019608200E0FD1F70103C
:10319000086E100C6420046020066040026040034A
:1031A00030000C13400364300E780C7C200310D8E0
:1031B0004405000810FC05621803801F2C00002441
:1031C0000000440000C600008200000301800103EB
:1031D000C0000E20003C18001004D7100C02200C78
:1031E00006401803C01801800316802314053F0809
:1031F00000300C1009ECFF030080010040B52405ED
:103200000000101065117D7103C4051900001E68CF
:10321000953E4007F0FF0F100804037004F0FF070D
:103220000C910F11B462200394053000F83FFD218A
:103230003F700C0000060000010080000060D531E6
:103240008403131800034280906A0C411008200088
:10325000C0400040C00320051020FF3FC21167306E
:103260000DFE1F28000028000824FE1F22D721037E
:103270008006FC1F2004080343FC0F0F5148115126
:1032800010090400C0FF0740000203F004C0FF0360
:1032900009100507400402F3141480180090310847
:1032A0009031109001329801221C01230041C1018C
:1032B0003624943248033290031AA0132201035398
:1032C00040020962A01B412741338D18031D1B03D7
:1032D0003516310340051080FF3F0C22C0038405E2
:1032E00008C0FF1F843C068008FEFF09100311C4BC
:1032F00024080C00200600C007537566100DFE0759
:1033000008000C10100330E00030401006FE1F00D3
:1033100042100350073EFE1F20421003A10C140A66
:10332000421858421C8C01080686034CF81FD80529
:1033300047B00946D0156C28124000F8C1008884B7
:103340000088FC3F4804104806083D13F807E412C3
:1033500088031006FE1F082101037017883101F849
:103360001001481001081821080821080421080349
:103370003FC044100B4000E0E00020600030B0741B
:10338000101E01880802C40C0C42067A20FD3FB0D2
:10339000400030400028401024FF3F22400020031E
:1033A00014064C02204404683009204130A040300B
:1033B0006070AB5DC804101402081006101026B02F
:1033C000FF3F30100600500600D803A21C263E40E6
:1033D0002030FF7F30200030300030100030F81FE8
:1033E000301908B01408B01208701308B010082083
:1033F000F00F006D036A10D0100542000046063D34
:103400004B031F4208A803100430420C03A1091EFD
:1034100010E3040915F185B00D4658052C2620014E
:10342000603003201001201831201919201F0DA031
:103430001A07649A012479212418212618232018B8
:103440003E20C837051F3080560410093F90810088
:1034500010810008032E80560500045202C00001AE
:103460001E0226031E0E2D031E06C1031026030393
:10347000060001030F80018303C003C300C0017372
:1034800000A0011B0090010F1088810310846103CC
:10349000108019042201041C0906388001FE1F80D7
:1034A00081A303196B4200041C0418FCFF32038142
:1034B00010011104DD2804211001113011611D4E8D
:1034C0000515B31108011A04112452070C021C0C33
:1034D000780115802D7A05100F300007003C00039D
:1034E000E00700031C030002150D13030C0442182F
:1034F000042006230003FC7F18211C100402038013
:1035000020301E800F0C03C03B08034033003360A3
:1035100023003F2023F00310830F030863000304FC
:103520002602140002AE0197043DD9041405008060
:1035300003703BC230043719304CF118101531308C
:103540000480CDFF0F80030106F0010106BC0102DB
:10355000038C041C04800186F60612840412CC2815
:10356000126804215412780412EC041C09C703F8F1
:1035700081011FE071440306240C8015CC1D570502
:10358000B7011CD062C0045202041DE70722600488
:103590001D76051E6091071D96032D9D031F0018C3
:1035A000C8061E0CA70512062D1C040380078A04FA
:1035B0001E1FDA062E1C4503EA04801D260810078C
:1035C0008040800180C12C100BC3C10000876100C6
:1035D000008621041148180402101804223F5211D9
:1035E000041F0C383A061C0498FFFF35071EE0B391
:1035F000044E38B20603148002ACE1D012F8041A6B
:10360000E000D64000211031D8720004F00C20C038
:103610000001E0FFFF0360C00004011618D11CC3C5
:103620001000041E18580715480F16FF1F86031AAE
:10363000C0C81D0B0A420F8D1540199541E01D1C95
:1036400008538003040121E80112FC66840006107F
:1036500000001602401E07FA07330318041DC303B7
:1036600054070880FDFF1F800F1D4306200606E05B
:10367000E1FF0F3B16F07A12D00412C8141EC44F9B
:103680000566C4331E2046051406E0FF0FC060F235
:103690000112046004E0FF071CE17F45804D2E0A03
:1036A0001DC90B1D70031DFD03610400041BFFFFFA
:1036B0000110A12425C01684241DC1031E407606D6
:1036C0001005600C401C04180C18300C4038380CE5
:1036D000C01000FC380713F87F7D1A08171DEA0395
:1036E0001B00104B16306F5A20D3434008043FC0D4
:1036F00018A50B2DA60B1B00009B4F00635D063128
:1037000008422118212021286134214421482150D8
:10371000215821600F12080180051D11083F0E007D
:10372000030AD1041E0CED0BF21F181E02A4091D82
:1037300018051DA6040110321C040018061B0BA15D
:103740003242030412820447FC01C2FA607C1E105C
:10375000B70A1D72041805076000C1231A2EAF12A4
:103760001CF82F1804430C20050018080C041280C4
:103770000417FEF9E41108B1040211F814311C1405
:1037800008880F300900061C001C050E7C0070A97B
:10379000051DB0092DEC0A058E800D7D00030D7E00
:1037A00000051DF30B1C0F08041800F80F3000185B
:1037B00026100818E6DF081C0D22000C1833000440
:1037C00018310002181B051E9842061E9815092183
:1037D0000C26184C199CA00918F4FF0F180C620055
:1037E000041404980763C81104500600611018807F
:1037F000041006C06010186004FC0910E038180EB0
:10380000C01F087E071E040007161C781E0C7008D7
:103810001A167C1E27060D1E6303091C05C1001025
:10382000C785061C114700078423001E8011803DB8
:10383000C0E8FF03C0AE0C1FE002760D1D7A0D1C20
:1038400006D000080CC88F0912C40C12C2041AC09A
:103850002D1C09C0E08800C06008034F0F18040643
:10386000C01098100408081C341C0618C0820F18D9
:10387000130E0110FF1D370B1C061080830320C997
:10388000081260041C06E0808111C045033E40D947
:103890000821041299041EB97F0A1C041800FE9323
:1038A000031EC0470C21201EC0A1034104220304B3
:1038B0001C0404C08000051006C80306C04404129E
:1038C00062081233041219041205042E02DC051DCD
:1038D0005C093104BB0102002DA00E1F701C3C07C7
:1038E0001D71044F300C4009410C3D14061FC030BF
:1038F000680861041D6006F1101DB60519424E00EE
:103900000805210E51042D28070112100F8B0140CC
:1039100080091C04400022680A16C6F842430410BD
:103920000480411804301F3CC0D8410EC0EC410750
:10393000C0A4C101C892E100C8895110C8844F10C9
:10394000C8804110CC041C08C138C080F93FC00DAC
:103950000F3D5F071406001818C0F9B810060618C6
:1039600000600E042E0C32111E18DE0F1D031019FC
:103970009212080412040400058C02000800011DC4
:10398000C0031E70010650107CC600E007860310BD
:1039900006060700060606041208041A0C141D0881
:1039A000061D510641041C080200060C070086A0F3
:1039B0000A1007768C01000ECC38140CCC007C0663
:1039C00068001C06380008001C1900063C20000690
:1039D00076200086E12000C6C03100368033E00F3B
:1039E000003F47081E3C6810ED01062D1D092E03FF
:1039F00096105FF0C704091DB7112DE8083D830834
:103A0000210415414FFEFF79123D76101A06701AF7
:103A1000FE701E07BC041F0580070A1DD2111D6021
:103A2000071D9A0A130018041204043D70072108A8
:103A3000610471100D110407DA01C01E43A30F2D9C
:103A40000C0A0311C3C004211812C2041DEC111288
:103A500043085263042E61BD073302100452180458
:103A6000120C041B06029B1EFEB0035FFE1F5209D0
:103A7000F1FEAC04000738000631041FC020B30972
:103A80005021E018044060180FE061F804A0611FA5
:103A900004B0F01804906E18049860180488601838
:103AA00006840432800413D807081203041200109D
:103AB000100510806008046200041230044C047881
:103AC00080C05806BD00041E0C990F1C0E0C70011E
:103AD000000C3102F0FF330E000C090441043D00DC
:103AE0000C1C041000320C0E1E371B043233041061
:103AF00008F0FF231C300C23221E63C90E10136331
:103B00000E3021630600E160060061C003F0FFC3D0
:103B100003084C1E0100618441FCFFCF230011709B
:103B20002380632026C0C0103C60800938188004C0
:103B3000301308ADFF054E20B00B2DB80B3DC00B68
:103B40002804080CF8703D010A2F800164043D8FA1
:103B50000A2D9E0F1D23063DA0043E189B0A1E0140
:103B6000A0081C0403000AAD0D1209281E08EB135F
:103B70001005F8FF013008120C0412020C1DB90EDA
:103B8000810481100D17000B116F100D06C08221EA
:103B900002C0847102C09831041211041009090294
:103BA000C0900502C080042D0005115B5DA00C2DA6
:103BB000700B9E07B00C4D28032D51151208231CC5
:103BC00006180403C010EF13100930180E603018E7
:103BD0000C70040C0410302008FD03AD000C5EE0F6
:103BE0001F095270E82D00031DED0653000C041C44
:103BF00004060602940910070F000506068004104B
:103C000006C00406066004123004120804120404FC
:103C10001202047200041007E6070004860310AEC7
:103C200001C1090D10000F0E1807BC0B1E82810781
:103C30002E8E100D1E411C0D1C078100008381017A
:103C4000AB061E03AF0616069F1E0E3B081E1C3653
:103C5000151A1CE519752DBD08EC04011004FC07AC
:103C60001D27040F1400F0000C317F1641A21EC165
:103C7000F40B22C10815CE300AC9FF0BF8DF00088B
:103C800088D90430060988D9FE0B0C1259041D7C12
:103C900014400D889900048899FF0F8899010C043D
:103CA000510C128F04128D041E81A00E800481011C
:103CB0000C0491100D5546053DA00C61E76DAF0E4B
:103CC0005D5F0C29BB021618395E40000F1DC80746
:103CD000180520000308541E1F6A171D7E031C06CA
:103CE0001806381C606C052E805E0C1D1C0B2C0405
:103CF00060069044071E0262142E06300A2DEF065D
:103D000031041A06BC1C040F8000BB0D1F800D057A
:103D10000C4E0C3D0C2DC4072E188E14412C1C0487
:103D2000C0C10F3F031E0F88060EFF068003ED0281
:103D3000083EE0D40A1D34102E0438101104220667
:103D4000045220048230042E02BF042C04300C8064
:103D500010073E028A069104136004800E11044A83
:103D60000D1D7E0D1DCC11480400F0031AFE6001EC
:103D7000032004208003D822010414048080112C25
:103D80001F3F017803100801FC8701010083041222
:103D90008118102281310180FC7F03C082010DC097
:103DA000860319E0820131F0810131D0801121C8F0
:103DB000FB3F01C48640528404314C1241041C0B69
:103DC0003D01C0E00301C07C0001C40C0E11017E66
:103DD000090D8000032D830A1D1B181E609B181EF1
:103DE000C0A40D1D2E081C040C803408181C0C1ACD
:103DF00021020082C30102820103DF191C0C061894
:103E0000610806383138043009FC172D84181D70FC
:103E1000091E8040191D971515C21E5EB40B1E5B4E
:103E200037081C0499003C300B140A30C0180330CA
:103E300060180730FC1D80091C073C30061808304C
:103E400058073A30B9DD020CBEC080111DC00E1DEE
:103E50006005410C4D84088D98114D84086DD21772
:103E60000D1AF00AEDFC0A31241EF82A0B19640F12
:103E70008B012000062E4000142DFC1335541D5BD1
:103E8000191D24121D50151C040C808C50031E9FFC
:103E9000540C1D580371041E838811100986310CBF
:103EA000E00C3000A0041C07B0283008B0E0291650
:103EB0001DE10652880412840412820472800422D6
:103EC000B0081C041F802038031DC1072D7014CDBD
:103ED0008C182D3B111E077C0D2D021B11041D702B
:103EE0001518050082FF0FFC1C040C008684101EB0
:103EF000C3F50C1C0A49200C80FD7F0C80E40E1CCD
:103F00001ED6001C12D2041C14C36004D0C6600468
:103F1000C8CC6004C4CC7F06C2CC2006680811045B
:103F20001007E007C0C08013041F10C0FC1271040A
:103F30001DBF1911040E901F00031D311C10100429
:103F40008E03F80F8601180C861918ECFF3F0882C3
:103F50000104230010141808F80F8C00980C8CF83A
:103F60001F8C10C809100C3F88408C18B84C8C1856
:103F7000985F04110C10049840D4041418F6199892
:103F800040521A9840431E9840211A98CE2018F8A3
:103F90004110183CE51C050C40001FED0C0E101CD8
:103FA000800F2D1515000B122404F8CFCF0F1844E5
:103FB0004404041006F847440498082C0580404443
:103FC0001474034388401013884F04434064041260
:103FD000600843202404122C081C10133404F890A9
:103FE00014041E08170404080A04B2071F07009DE2
:103FF00008FD80083DD50B6E38440D1D440F1DF89B
:104000000A72C0041DFE1D1C09180FC0C0F806C0AE
:10401000C45C121FCF1FCC1030061806C0D8181071
:10402000111CD1041698FC131813201C0410C0C7CF
:10403000F20F1DC30F167CFC1F1CC01B0C0D1600BD
:10404000153D00099E0378164E81740A0D109016D6
:104050004D080D61301D78181F0087DC143E83A7C2
:104060000F1D10096FFF07B30F1DA4051F00C01B14
:104070000D1F4098ED0C1D15081C0830C0FF7F1067
:1040800000FF7C100F11E00F7F0C1DCF1D1E0319C8
:104090001F4E07210E1E0EF90B100A06E018002312
:1040A00060188041041DCD0B1C04608063E1191071
:1040B0000E6318F0056718100C6618000C620452A5
:1040C000600432611C811061041D31101ECC510C42
:1040D0001E3EB4071C040300188A172DFC102DEA9D
:1040E00013EE0400041EC0AC171C04C000314005D0
:1040F0001C0A330060983100E09F31310C1C043100
:104100000C3030031F10C0F5071E4C351E40065FF3
:104110003000C420041EC2C80315531E1810111C01
:10412000053FFC1F50380F525804428C041C0A10E3
:104130008601C00C0601C006D8061E83540B1C0461
:10414000C1000E88151E3C99110E1038800D1D6F90
:104150001A1FC0807A1F15785F80C3880F1F21182F
:1041600030156E3F5B073C0780200402FEE1C4125D
:104170003203047004E0FF030C0115101720615591
:104180003C066200010C04B9122DE81E11500E11FC
:10419000FE00141E04101D2E1C58116D5009310410
:1041A0001D710B2D80141D55091E0CB8041C060C26
:1041B0000CFE010452181E068B201D780B310412D0
:1041C00002081D5C113E00080B11041D60132DBC7C
:1041D0001B1DC5091DEE151C0B03E009F80338066D
:1041E000E0011C7216630C78800D1480140D7A8027
:1041F0000A1E407C0725402E401C171E60671F4585
:104200004C1004024867041266081C09E4FF0348C6
:104210006400024C6B191E4CFC03A0064E18431898
:1042200040041D00131DB30310041A40F0441F8006
:1042300000AA1F1E81E2111EC3D11D1EE65A091ECF
:104240007C371D523808CC09C72F40E0001F401EA4
:104250008107017F801D74212FC04128061D200683
:104260001F60002F141D3A1A1807300204C004C63C
:104270002E1D881C1D6D1B2DE80C1FC0C0C8131CF3
:1042800006683808C0369C0F4E03F0111EF00C056E
:104290001C06DC005C00CC80081004C0009A041EE0
:1042A0009B40121E9978091DE4211E40A0041E2087
:1042B00072141C0510187CC0A31D1EF8E4141EE027
:1042C0009A14EE4080085E80001A2D080C5E21D8FA
:1042D000102D6B1DA1041804FEFF085A1D3D121D70
:1042E000DD0B3C0402C006780B1E02DC1A31041EF2
:1042F000E047222D94151ED81E163FCC0084221DA7
:1043000048031D45053E006B201DFD0410040007F9
:10431000C09C1EFC66050D1380176D85052DD819F0
:10432000AE1F881AC1042D781B1D28121EC0AC10A8
:104330001EC08A191EC03016151D6D811401183853
:10434000D1040E1E4080057D001CEDE00B0D151CF8
:104350001C2D01178E033C0F3D34095E10C80B3D28
:10436000001C1D8B234C08F007C0FF0F0780B418FA
:104370000E8C0400084DFC0D1E40D91D1DD81E1DBD
:1043800058191E035A191D5506120E04160CC81F83
:104390000C43B0212E23180E1E3F9E0C3208040041
:1043A0000B1408100860F03F0860103004711C11F5
:1043B000281D8E2114046000200E1FC00FDE230F65
:1043C000140F208107454C7E00E81B9D940A2D5157
:1043D0000415601EB0D10B1EB8E9181E9808101EF7
:1043E0008CE5061E86AD091DDC051DB7164F0EC0F7
:1043F00004100F16183000100D1A801F0D11001D2B
:104400009D740B4D0C127DF01D5E02F01DADF41D70
:104410002DF81D4E18A21D21041E3C4C121E666371
:10442000231FC6C13C0D1E83981E1E0350242C075B
:10443000031E3000023CBC25FE06810F1DEE224FFC
:10444000006E380331041EC37F0D1E43AF151D0CD3
:104450000321EC1E889D101E8C21041C0ACC4100F7
:104460002044410C6026A40C1C062641008012103A
:1044700011420304138007041C0604410CC00C0CF9
:1044800005120C281E18510411041F1808D9101FFA
:1044900000416217255C830100040D5404062D07BA
:1044A000034F2002D317610421100224C0734DDC96
:1044B0000FDDF5081E400D0C1C04C0FF839C070295
:1044C0001C810492FF200D14011E0E1400011E1DFC
:1044D00081055FFEFF740F5104C3FE7F10A1143EDF
:1044E00002A7235D8C094D80095D880919905D84C0
:1044F000092D94091E8584092D800919B81A60C4F4
:104500001DCC081D6C272EFC80090E8B0E80150D0E
:104510007E00125D020A1D14261D7C1D72C0021D44
:1045200056175D84094DFD0E1E8095201FFC4148E5
:10453000061D550D1EC01C1B71040113023EC270E6
:10454000061E6004221E3044111F1C3C0F191DDC86
:104550000F0E110880090DFF800A0D8080113D5655
:10456000193DF4131A103441043DFC1BE0054010C2
:104570000C03042DF41B1E40E00A1DA4165D6C07FD
:104580005D3C061D141031042D001A199C4C0400CA
:10459000FC0E4F221E80F8201EE041061E3C8608BD
:1045A000EC0507000E3C81112DD817214C1D9809F0
:1045B0001FD013241900041713C20804100823FE87
:1045C0000F30230218041200083210041C11630279
:1045D00010104302301043063010C3FE3F18900DF8
:1045E000100818830300080307041E1E7A131D49D0
:1045F0002C1C0403F03F36251E1F6B260E1B0C805F
:1046000017011C041D691D1DF0170D26E808CDC8F3
:10461000065D5C050D1503101D79111009F8FFF9F1
:104620001F00C3181C041DF4101DFC201EC3E61E31
:104630001EC3EE1E11041FF8FF061F72C3045202B0
:104640001C12041812083440041800C1042280040B
:104650001EC0881C1C0580D81F40380F1C0760C274
:10466000180620FC832C0E1A70801C0D82000D5D34
:10467000D01B2DD81B0112042D2006031402800428
:104680002D3C061D821EA1041DCE2041042DC60412
:1046900011063E60B20E1EFC18203260EE0D138033
:1046A000195AE08849D44D181B2D08161D3E0A1DC5
:1046B0001E212D161C1F077040221C05F0FF001C38
:1046C0004F065F0C20582931661D3C1C7174011681
:1046D000041D201441980D8D00043E017F101D2CF7
:1046E0000B1D2D071E066C282E84C4232E19CC23E7
:1046F0001D3E083DBC1E2E187C0AA0052060D80077
:104700000413E07F081E66740C120618100606C813
:1047100000601604200566CC0030044C1BC6C41093
:1047200010C6C6100846C2100406C110E487C13086
:1047300080C38079004180D41A0D8A800A5E6000AF
:10474000041DAF2C1D8C143D80191D0A191F1C302F
:10475000B2121C07380C0802180E1A2C1F87E080B2
:10476000171D0C0E3C0DC0010760E002063060060C
:10477000020860191DB9303F0C706828EC0E8003E8
:10478000A01FC0FEFF1E300660080CBC080D10C044
:10479000089D7C1E0E20403C216D60165F0BC0AA58
:1047A0000D3DB4253E040C161EC390181E610C135B
:1047B0001D081E1C0760301C0610182D162E0CBC80
:1047C0001F1F07024C2B1F03E059151F1060122AF0
:1047D0001E3881281D90030E148002181DFC1D0D2B
:1047E0001200284E082F128D00280134040E19865D
:1047F00000280D7E000B0D7D801F1D661A1D9B1469
:104800001FFF0F481D021606043D8C07D11452608D
:10481000042D841E9260105220041D902C5306100B
:10482000041C0508807107611D1E07C2210F1403B7
:1048300002810C7E08000C5E18381C510419504D82
:10484000082D1108B1041238041C196C140430CC62
:10485000660430C4C6043046C2043002810430818C
:104860008104B0302E1E7084331D2B2F2DF11F11AB
:10487000041E30461B1EC0E42704041300071082E8
:104880001D1C1B0C061380FF07F0FFEC0F0F180315
:10489000F008104D1822091E802DE0059EFC601FB7
:1048A000EDFC211A23A11C0A41830000898308F82A
:1048B000DF542E1F21C4002D141AC001C007A20608
:1048C000403DB30C20C9911810C18B0808618600C7
:1048D00004D184E056842C4E085D141E06DC0517B6
:1048E000FD81884C08413E18FFFF0806A4103538AA
:1048F0007DBC2C6E98191B0E8C00801D0D8000094C
:104900002D67353E38E82DAD04212D09351DD82BF6
:10491000397C1A107CA104F004F00F04140119185A
:104920003DA42F39880C0491000410001D0D7B80DC
:10493000034E80B82C1009F08F41103086C13F041F
:104940004210041006C91030FEDF086005E110F0C7
:104950008714211812D11812FF1042C01813C6C0B4
:10496000041C05C2101046F4071F66CC36331C1118
:10497000C8101016D81F18FEDF1C0876D0080806CD
:1049800026291D320A1EE484141E8215370E1002D9
:1049900080062DAC37AF0EF82C034D00141E0168B5
:1049A0001F1D58192D7022D1042D70090110184EA9
:1049B00019B03001160212FC041D0007ED8122CA55
:1049C00020742D74261E1096333D880F3E00E80992
:1049D00081041C0804100C20F83F0CD82701140493
:1049E00083F81F1CA2043C1E200C381FC007340A89
:1049F000FE0780130D7F80031D4B154D500F2D5466
:104A00000F1F1060D01D1F20204A131EB0E8381C55
:104A100009BE03141886FF3F0CF8261C08FCC3408F
:104A2000008C4140FC041C05440040E0C8371005E0
:104A3000700C0C30041C0B186B0C0CFC6C0C0C0870
:104A40006469221C0462FC0FF928220C0410068001
:104A5000630C0C7C08120C04830460183D992E0D25
:104A60008E80201DE42D1FF01F68040004120863CF
:104A70000C04A3F00F1021281203281D34031E0F6D
:104A8000A328B208041D76151E03761581040C0DAB
:104A900012080803308808FF7F040FFE3FFE1C2D1C
:104AA000DD281C0610087000F066321C08305830F3
:104AB000043098307A27433306041C0A3702F01F6B
:104AC00032013018B2EE1011181ED89C0A1DE414E1
:104AD00061041005F01F3010181F18300821A118AC
:104AE00052100412180C1E08F1391D0A2F10040070
:104AF000040E044E044D290D1000092DD8221D84EA
:104B0000281D24212104101790200C00F07F0C0890
:104B10003030FC1F3030061C3030020C3030F41CBA
:104B20000430010C5C3715F81204101C040C0CF056
:104B3000AA1E1D6421110412380411A01D6D051D4B
:104B40001C37F1041C08F03F100E3030E090212D8E
:104B50006926DD80080D8400190D7800330D7E80F4
:104B6000049E10F80E41041E0429142D90053E1FCA
:104B7000080F61049E08EE243DE6241D10332EFA32
:104B800030332D532E1E06931911041D902E1E40F6
:104B9000942E1D67301D54101E06573A3E0670268F
:104BA0001E04312C0F15C0FF7C341DB6391D541462
:104BB0001D773D1EC094391004C60010041006185D
:104BC0004C460008041C08844C6610C0FFE73C2BD0
:104BD0001E26BF202DC4181C06520C70FE57720DE5
:104BE000101A500C680048046800490464F8430631
:104BF0006218810660188102601891041C0E8903F6
:104C00006008850160088703608CC320231C06218F
:104C10000E6004184A271C040C78600B0D0F172037
:104C2000C0FF1F4D24221D4A241E402E1926603627
:104C30001DD6051C14E00CFE1F700C0608700C2617
:104C400008784CE60868FC66EB0410046608620409
:104C5000A26004128C04124C04123C04131C261C87
:104C60001E3212261FB001531C1DD2161C040C1C30
:104C700060650C0C079060C00130203080087DC05A
:104C80002F1DB83EB1040119143D472F4D34301C7F
:104C9000050410300C64272C040C06E014301C06AC
:104CA000318C01803104381C06314C000031193F31
:104CB0003E305C307D9C270D2080213DC0262D0C90
:104CC00028021603042D04373E402D245DB80F1D25
:104CD0006F281D801AAE0E080DE1042D040A8E20E7
:104CE000052B8D7E089203041C08A1FF07FC7F02A0
:104CF0000670201DC03121041C0A88014010980153
:104D00006018D01A041D581A1E3CF81C2C087698FE
:104D1000038041067EF41A4F38E007032DBD243D81
:104D20000C2C6D0C1D5260041D3D3A1F00184D3AAD
:104D30001DC8231D00261D18191EF00E1F0E26204B
:104D4000001D3D04394EF00C0C3DF931B104726088
:104D5000041E06403A41043E18B635410421021EA5
:104D600003222F1E0108291D602F1E201E202D82C8
:104D70001E0E1304000F0D7800061DE0341E01A066
:104D80001745F01DD1111C04C00087D0173C064602
:104D900000C00842E419BDC7381D5B2C1FE0C28467
:104DA000261C050E1000E0B82E1006F0081000D0EA
:104DB000041ED823251D88331F3FC8CC2212C404EB
:104DC000FEC2FF38A1040E8C0800060D7B001C1DDE
:104DD000B93B2204041C05060708093A282D8B2537
:0C4DE000A004A24A041E211A00000000DA
:04000005080000ED02
:00000001FF
